:020000040000fa
:080000000002040000000000f2
:020000040000fa
:040008009803000059
:020000040000fa
:04000c009803000055
:020000040000fa
:040010009803000051
:020000040000fa
:04001400980300004d
:020000040000fa
:040018009803000049
:020000040000fa
:04001c009803000045
:020000040000fa
:040020009803000041
:020000040000fa
:04002400980300003d
:020000040000fa
:040028009803000039
:020000040000fa
:04002c009803000035
:020000040000fa
:040030009803000031
:020000040000fa
:04003400980300002d
:020000040000fa
:040038009803000029
:020000040000fa
:04003c009803000025
:020000040000fa
:040040009803000021
:020000040000fa
:04004400980300001d
:020000040000fa
:040048009803000019
:020000040000fa
:04004c009803000015
:020000040000fa
:040050009803000011
:020000040000fa
:04005400980300000d
:020000040000fa
:040058009803000009
:020000040000fa
:04005c009803000005
:020000040000fa
:040060009803000001
:020000040000fa
:0400640098030000fd
:020000040000fa
:0400680098030000f9
:020000040000fa
:04006c0098030000f5
:020000040000fa
:0400700098030000f1
:020000040000fa
:0400740098030000ed
:020000040000fa
:0400780098030000e9
:020000040000fa
:04007c0098030000e5
:020000040000fa
:0400800098030000e1
:020000040000fa
:0400840098030000dd
:020000040000fa
:0400880098030000d9
:020000040000fa
:04008c0098030000d5
:020000040000fa
:0400900098030000d1
:020000040000fa
:0400940098030000cd
:020000040000fa
:0400980098030000c9
:020000040000fa
:04009c0098030000c5
:020000040000fa
:0400a00098030000c1
:020000040000fa
:0400a40098030000bd
:020000040000fa
:0400a80098030000b9
:020000040000fa
:0400ac0098030000b5
:020000040000fa
:0400b00098030000b1
:020000040000fa
:0400b40098030000ad
:020000040000fa
:0400b80098030000a9
:020000040000fa
:0400bc0098030000a5
:020000040000fa
:0400c00098030000a1
:020000040000fa
:0400c400980300009d
:020000040000fa
:0400c8009803000099
:020000040000fa
:0400cc009803000095
:020000040000fa
:0400d0009803000091
:020000040000fa
:0400d400980300008d
:020000040000fa
:0400d8009803000089
:020000040000fa
:0400dc009803000085
:020000040000fa
:0400e0009803000081
:020000040000fa
:0400e400980300007d
:020000040000fa
:0400e8009803000079
:020000040000fa
:0400ec009803000075
:020000040000fa
:0400f0009803000071
:020000040000fa
:0400f400980300006d
:020000040000fa
:0400f8009803000069
:020000040000fa
:0400fc009803000065
:020000040000fa
:040100009803000060
:020000040000fa
:04010400980300005c
:020000040000fa
:040108009803000058
:020000040000fa
:04010c009803000054
:020000040000fa
:040110009803000050
:020000040000fa
:04011400980300004c
:020000040000fa
:040118009803000048
:020000040000fa
:04011c009803000044
:020000040000fa
:040120009803000040
:020000040000fa
:04012400980300003c
:020000040000fa
:040128009803000038
:020000040000fa
:04012c009803000034
:020000040000fa
:040130009803000030
:020000040000fa
:04013400980300002c
:020000040000fa
:040138009803000028
:020000040000fa
:04013c009803000024
:020000040000fa
:040140009803000020
:020000040000fa
:04014400980300001c
:020000040000fa
:040148009803000018
:020000040000fa
:04014c009803000014
:020000040000fa
:040150009803000010
:020000040000fa
:04015400980300000c
:020000040000fa
:040158009803000008
:020000040000fa
:04015c009803000004
:020000040000fa
:040160009803000000
:020000040000fa
:0401640098030000fc
:020000040000fa
:0401680098030000f8
:020000040000fa
:04016c0098030000f4
:020000040000fa
:0401700098030000f0
:020000040000fa
:0401740098030000ec
:020000040000fa
:0401780098030000e8
:020000040000fa
:04017c0098030000e4
:020000040000fa
:0401800098030000e0
:020000040000fa
:0401840098030000dc
:020000040000fa
:0401880098030000d8
:020000040000fa
:04018c0098030000d4
:020000040000fa
:0401900098030000d0
:020000040000fa
:0401940098030000cc
:020000040000fa
:0401980098030000c8
:020000040000fa
:04019c0098030000c4
:020000040000fa
:0401a00098030000c0
:020000040000fa
:0401a40098030000bc
:020000040000fa
:0401a80098030000b8
:020000040000fa
:0401ac00220300002a
:020000040000fa
:0401b00098030000b0
:020000040000fa
:0401b40098030000ac
:020000040000fa
:0401b80098030000a8
:020000040000fa
:0401bc0098030000a4
:020000040000fa
:0401c00098030000a0
:020000040000fa
:0401c400980300009c
:020000040000fa
:0401c8009803000098
:020000040000fa
:0401cc009803000094
:020000040000fa
:0401d0009803000090
:020000040000fa
:0401d400fa0200002b
:020000040000fa
:0401d8009803000088
:020000040000fa
:0401dc009803000084
:020000040000fa
:0401e0009803000080
:020000040000fa
:0401e400980300007c
:020000040000fa
:0401e8009803000078
:020000040000fa
:0401ec009803000074
:020000040000fa
:0401f0009803000070
:020000040000fa
:0401f400980300006c
:020000040000fa
:0401f8009803000068
:020000040000fa
:0401fc009803000064
:020000040000fa
:04020000980300005f
:020000040000fa
:04020400980300005b
:020000040000fa
:040208009803000057
:020000040000fa
:04020c009803000053
:020000040000fa
:04021000980300004f
:020000040000fa
:04021400980300004b
:020000040000fa
:040218009803000047
:020000040000fa
:04021c009803000043
:020000040000fa
:04022000980300003f
:020000040000fa
:04022400980300003b
:020000040000fa
:040228009803000037
:020000040000fa
:04022c009803000033
:020000040000fa
:04023000980300002f
:020000040000fa
:04023400980300002b
:020000040000fa
:040238009803000027
:020000040000fa
:04023c009803000023
:020000040000fa
:04024000980300001f
:020000040000fa
:04024400980300001b
:020000040000fa
:040248009803000017
:020000040000fa
:04024c009803000013
:020000040000fa
:04025000980300000f
:020000040000fa
:04025400980300000b
:020000040000fa
:040258009803000007
:020000040000fa
:04025c009803000003
:020000040000fa
:0402600098030000ff
:020000040000fa
:0402640098030000fb
:020000040000fa
:0402680098030000f7
:020000040000fa
:04026c0098030000f3
:020000040000fa
:0402700098030000ef
:020000040000fa
:0402740098030000eb
:020000040000fa
:0402780098030000e7
:020000040000fa
:04027c0098030000e3
:020000040000fa
:0402800098030000df
:020000040000fa
:0402840098030000db
:020000040000fa
:0402880098030000d7
:020000040000fa
:04028c0098030000d3
:020000040000fa
:0402900098030000cf
:020000040000fa
:0402940098030000cb
:020000040000fa
:0402980098030000c7
:020000040000fa
:04029c0098030000c3
:020000040000fa
:0402a00098030000bf
:020000040000fa
:0402a40098030000bb
:020000040000fa
:0402a80098030000b7
:020000040000fa
:0402ac0098030000b3
:020000040000fa
:0402b00098030000af
:020000040000fa
:0402b40098030000ab
:020000040000fa
:0402b80098030000a7
:020000040000fa
:0402bc0098030000a3
:020000040000fa
:0402c000980300009f
:020000040000fa
:0402c400980300009b
:020000040000fa
:0402c8009803000097
:020000040000fa
:0402cc009803000093
:020000040000fa
:0402d000980300008f
:020000040000fa
:0402d400980300008b
:020000040000fa
:0402d8009803000087
:020000040000fa
:0402dc009803000083
:020000040000fa
:0402e000980300007f
:020000040000fa
:0402e400980300007b
:020000040000fa
:0402e8009803000077
:020000040000fa
:0402ec009803000073
:020000040000fa
:0402f000980300006f
:020000040000fa
:0402f400980300006b
:020000040000fa
:0402f8009803000067
:020000040000fa
:0402fc009803000063
:020000040000fa
:04030000980300005e
:020000040000fa
:04030400980300005a
:020000040000fa
:040308009803000056
:020000040000fa
:04030c009803000052
:020000040000fa
:04031000980300004e
:020000040000fa
:04031400980300004a
:020000040000fa
:040318009803000046
:020000040000fa
:04031c009803000042
:020000040000fa
:04032000980300003e
:020000040000fa
:04032400980300003a
:020000040000fa
:040328009803000036
:020000040000fa
:04032c009803000032
:020000040000fa
:04033000980300002e
:020000040000fa
:04033400980300002a
:020000040000fa
:100400006f0721006efe26000e018800000000002c
:10041000000020000000e000020032000001200087
:100420002002880014000700c30007000000e0005d
:1004300003003a0000db200001002000020037002a
:100440000000200001002000810f70000100320038
:100450000f000700000020000000e0000200320052
:1004600000000200000000000a0b02000000000073
:100470000040da000000fe00200020000000e00044
:1004800002003200100020009001880000000600e9
:10049000a1028800800478000000eb001f003700f4
:1004a000e284440054a0b4009905ba00e2844400f8
:1004b00054a0b4009906ba00e284440054a0b400e9
:1004c0000006eb00476fde00fd07b200ae018800ba
:1004d000636ce10003003a000ad801000000eb0061
:1004e0000e003700606ce10008003a00004deb00a0
:1004f0000a05e800020039003420ec000af0a000f0
:100500008b05e900f9ff3e00040037006168e10057
:10051000010032000086eb000b00070019c7ba008b
:100520001905ba000e04e00003003a000a00e000da
:10053000dbff3a0000000600fe07b200ae028800b2
:100540008a047800f5ff37000cd0a300e20f4d00bd
:100550001c00390089027800354dba000a05e80010
:10056000020039003420ec000af0a0008b05e900fd
:100570000f003200254dba000a05e80002003900dc
:100580003420ec000af0a0008b05e90008003200de
:100590000c00e0000600320015cdba000a05e800a4
:1005a000020039003420ec000af0a0008b05e900bd
:1005b0008984e80054a0b4000b00e000e2ff3a0098
:1005c000000006009902ba00055d78008b05e9007d
:1005d000f7ff3200c82ade00055d78008b05e900d0
:1005e000f3ff32000c00e000f1ff320019ddba0029
:1005f000eeff37003200f8003400f8001000200051
:10060000a001880010002000900188005aaea800c8
:100610006005210010b0a000206180005083880098
:10062000606180006083880070838000706488004f
:100630000d68a9005aaea9003400f9003200f90093
:10064000004006003200f8003400f80010002000de
:10065000a001880010002000900188000600fa0028
:100660000000eb00d0bf9f006000b800e0bf9f001b
:10067000f1bf9f00c1608000d1bf9f005fb89700ad
:100680004300dd00d0bf9f005fb997008001eb0001
:100690004c18dd00c410de00810070004c10dd003d
:1006a000e0bf9f00f1bf9f006fb89700ffb89700b1
:1006b0004109dd004f00de0000007100cf08de00c0
:1006c000e0bf9f00f1bf9f006fb99700ffb997008f
:1006d000208180003181800000004100e0804800de
:1006e00020818800318188002830ec00f00f200044
:1006f0002810b60009003a00208180003181800076
:100700004809dd004800de0000007100c808de0076
:10071000708388002430ef002630ef000c28a900f9
:100720000080fa003400f9003200f90000400600b1
:0c0730000040da000000fe0000000500a0
:020000040000fa
:10073c00a52fa9002be3a90061e3a90097e3a90069
:10074c00cde3a90003e4a90039e4a9006fe4a900f2
:10075c00a5e4a9000103a9000000eb0054200a0045
:10076c00000300003000200010200a0000030000ed
:10077c000223ef000423ef000623ef000823ef0011
:10078c00204e2000501888000c23ef000e03a90007
:10079c000e23a9000e43a9000e63a9000e83a90025
:1007ac000ea3a9000ec3a9000ee3a9001003a90013
:1007bc001023a9001043a9001063a9001083a900fd
:1007cc0010a3a90010c3a90010e3a9000000eb00be
:1007dc00fc200a001203000012e3a90020002000f4
:1007ec00b8200a001203000012c3a9001000200058
:1007fc0054200a00120300000000eb0020200a0025
:10080c00120300001423ef001623ef001823ef004f
:10081c001a23ef001c23ef001fe3a9001fc3a9003c
:10082c001fa3a9001f83a90074200a001e03000047
:10083c0020200a001e0300002023ef002223ef00db
:10084c002423ef002623ef002823ef0010002000c4
:10085c000000060023cea9001fcea90029cea800b7
:10086c002be3a9000000eb00a8200a002a030000db
:10087c002ae3a9001000200043200a002a030000ec
:10088c0020200a002a0300002de3a9002dc3a80094
:10089c002da3a9002d63a9000000eb00a8200a00dd
:1008ac002c0300002cc3a90030200a002c030000ec
:1008bc0031e3a90031c3a90031a3a8003183a800fa
:1008cc0010002000ba200a00300300000000eb00ea
:1008dc0098200a003003000076200a003003000044
:1008ec0054200a003003000032200a0030030000bc
:1008fc0010200a0030030000ec200a003203000034
:10090c003303a9001000200054200a003203000019
:10091c003263a9003243a9003223a9003203a90093
:10092c002e23ef000000eb00fb200a003403000034
:10093c003543a9003523a8003503a90043200a003c
:10094c003403000020200a003403000037e3a90020
:10095c0037c3a90037a3a9003783a90030002000b2
:10096c0098200a003603000036e3a80036c3a9001d
:10097c0036a3a9000000eb0040200a00360300005b
:10098c003fe3a900ec200a003e03000030002000e9
:10099c00a8200a003e0300003ee3a9000000eb0083
:1009ac0065200a003e0300003e83a8003e63a800b9
:1009bc004000200020200a003e0300003de3a90077
:1009cc0010002000ec200a003c0300003d63a9004d
:1009dc0040002000a8200a003c0300003ce3a900d2
:1009ec003cc3a9003ca3a900b001200040200a0090
:1009fc003c0300003a23ef003823ef004223ef00c2
:100a0c004023ef004623ef004423ef0010002000aa
:100a1c00a8200a004a0300004a63a8004a43a90020
:100a2c004a23a9004a03a90040062000401a880066
:100a3c004c23ef00803e2000701a88005023ef00fa
:100a4c00214e2000911a88005423ef00b10420009d
:100a5c00b11a8800c01a88005a23ef005c23ef00fb
:100a6c00100020000000060061e3a9000000eb006c
:100a7c00a8200a006003000060e3a9001000200019
:100a8c0043200a006003000020200a0060030000dd
:100a9c0063e3a90063c3a80063a3a9006363a9006f
:100aac000000eb00a8200a006203000062c3a9004a
:100abc001000200030200a00620300006623ef00c3
:100acc000000eb00ec200a00680300006903a90099
:100adc001000200054200a00680300006863a9007d
:100aec006843a9006823a9006803a9006423ef00e8
:100afc000000eb00fb200a006a0300006b03a80057
:100b0c006b23a9006b43a90043200a006a03000071
:100b1c0020200a006a0300006de3a9006dc3a90040
:100b2c006da3a9006d83a9003000200098200a0055
:100b3c006c0300006ca3a9006cc3a9006ce3a900b2
:100b4c000000eb0040200a006c0300007423ef004f
:100b5c007223ef007023ef006e23ef007823ef0079
:100b6c007623ef007c23ef007a23ef008023ef0045
:100b7c007e23ef0040062000101c88004038200027
:100b8c00201c88008623ef008823ef00e02e200035
:100b9c00501c88008c23ef008e23ef009023ef0075
:100bac009223ef0010002000000006000200fa0063
:100bbc000000eb00f0bf9f002be3a80061e3a8004e
:100bcc002e63a8006463a800713821002e83ab004b
:100bdc0002003a006483ab00050032007fb8970036
:100bec000001e800f2bf9f00810f5000f7ff3600b4
:100bfc003263a8006863a80067a3a9006783a900f3
:100c0c00100020000080fa0000000600a40fa900cc
:100c1c0001eba90001aba9003000200065200a00ff
:100c2c00020b000002eba90005eba90005cba90003
:100c3c00058ba800056ba90070002000a8200a00f5
:100c4c00040b00001000200060200a00040b0000c0
:100c5c008000200090200a00060b000007cba900a2
:100c6c0007eba9000000eb00fd200a00080b0000b8
:100c7c00098ba900096ba900094ba900092ba90034
:100c8c00090ba90008eba90008cba90050200a0009
:100c9c00080b000010002000fe200a000a0b0000c8
:100cac000000eb00d8200a000a0b00000aeba90098
:100cbc000a0ba9000a2ba9000c0ba9000c2ba900ec
:100ccc0010200a000e0b00001000200032200a0039
:100cdc000e0b000000eca900000ca900002ca900d0
:100cec00f0002000b8200a00020c000002eca90061
:100cfc00020ca900022ca9000000eb0090200a00b5
:100d0c00d80b000090200a00d40b0000300020000b
:100d1c0098200a00d60b00000000eb0060200a00af
:100d2c00d60b000070002000ca200a00d60b000071
:100d3c003000200098200a00da0b00000000eb00c5
:100d4c0060200a00da0b000070002000ca200a00a4
:100d5c00da0b00001000200000000600380ea8007e
:100d6c00d18ba900132ba900130ba900f18ba800a0
:100d7c00218ba8006000200040200a008c0b000092
:100d8c00c0002000c8200a00a00b0000a0eba800a7
:100d9c00a0cba900a08ba900a06ba800a04ba90018
:100dac00a02ba900a00ba800398ba800902920002b
:100dbc00e05988008029b000f05988006beba9003d
:100dcc0030002000ed200a006a0b0000ca200a0047
:100ddc006a0b00006b2ba900c000200040200a0009
:100dec006a0b0000100020000000060038eea8007e
:100dfc00d20ba900142ba900140ba900f20ba8000c
:100e0c00220ba8006000200040200a00900b00007c
:100e1c0000012000c8200a00a40b0000a4eba900cc
:100e2c00a4cba900a48ba900a46ba900a44ba90076
:100e3c00a42ba900a40ba900420ba900442bef0082
:100e4c0090e52000305a88006feba900300020009c
:100e5c00ed200a006e0b000010002000ca200a00d2
:100e6c006e0b00006f2ba9000001200040200a002f
:100e7c006e0b000010002000000006001c2ea800c5
:100e8c00d0cba90011aba900118ba900f0cba80005
:100e9c0020cba8005000200040200a00860b000048
:100eac0060002000c8200a00a40b0000a4eba900dd
:100ebc00a4cba900a48ba900a46ba900a44ba900e6
:100ecc00a42ba900a40ba90040cba900442bef0034
:100edc00a0e82000305a88006feba90030002000f9
:100eec00ed200a006e0b000010002000ca200a0042
:100efc006e0b00006f2ba9006000200040200a0040
:100f0c006e0b00002000200064200a007008000016
:100f1c000c28a9002c28a8001000200000000600b6
:100f2c000200fa000000eb00f0bf9f001000200050
:100f3c00000be2002200350001eba80000eca80039
:100f4c0001002800723821000360800003806000db
:100f5c0005003a007fb897008001e800f3bf9f00be
:100f6c00820f5000f8ff36000000eb00000ce2008e
:100f7c0013003d00713821007fb99700810f51009b
:100f8c000f003e000aeba800000ca9000a0ba900f8
:100f9c00002ca9000a2ba900ec200a007208000002
:100fac000ce8a9002ce8a90053002000ec230a004f
:100fbc00740800000d68a9002d68a800100020001e
:100fcc000080fa0000000600881f7800a6fe0700cb
:100fdc0020fe0700b502070084ff0700a7ff0700eb
:100fec000004eb0028838800d8828800f8828800ef
:100ffc0018838800a0ac2000c08288000083880081
:10100c003f0207004005210090407800e1ceb3007c
:10101c00014878000000e8009040780021c0b3003f
:10102c0001487800a1382000f00f20002205210093
:10103c009241780000c960004809de0031052100aa
:10104c009141780082487800e78050001141780087
:10105c00884878008100e8001141780088487800c1
:10106c00e1062100220321009241780000c96000b2
:10107c00c809de000201e80012427800034978003a
:10108c00c2c22000e30221001342780080496100b3
:10109c00c811de00f20221001242780003497800e8
:1010ac00e2c820000303210013427800804961004c
:1010bc004811de000300e8009041780002487800f7
:1010cc007f0040001041780072c0b30002487800e5
:1010dc000000e80010417800f2c0b300024878002c
:1010ec00630050001041780062c2b30002487800df
:1010fc000000e8001041780032c0b30002487800cc
:10110c002002b1001074a1008808780010002000a3
:10111c004f0478000000060081ff070089020700d9
:10112c00a2fe0700c0022100d90107001000200018
:10113c000000060030838000e30f500030003200c6
:10114c0004003e00e10f50000f00320015003e007d
:10115c0006003700e50f5000520032003f00390006
:10116c00e60f500069003a005c00370096ff07005c
:10117c006005210081ff2f00108860001000200006
:10118c003083880068003700e3ff0700600521000a
:10119c0081ff2f0010886000200020003083880021
:1011ac00610037006005210020400a00100100009a
:1011bc0031a3a800d10221001174a10010a0a1003c
:1011cc001000e00058003d00b082800000b8a30081
:1011dc0055003200b082800000c8a30052003a00d3
:1011ec00b082800000d8a3004f00320040062100de
:1011fc000008eb0030002000308388004a003700e4
:10120c006005210020400a0010020000ee004000a2
:10121c0011007800d28280008008e800820f500014
:10122c00410036006c8050008000eb000108780013
:10123c002203210092417800004978004800de002a
:10124c000201e8009241780000497800218388006f
:10125c0040002000308388003300370060052100f7
:10126c0020400a001002000031a3a900d002210086
:10127c001074a00080052100900078006488400064
:10128c009000780070838000808f50002600390019
:10129c00400621000008eb0050002000308388003d
:1012ac00210037006005210020400a0010020000d8
:1012bc00ee00400011007800128380008008e800e6
:1012cc00820f500018003600010078000008eb0077
:1012dc006000200030838800130037006005210077
:1012ec0020400a0010030000780040002103210078
:1012fc001141780080487800c800de0030032100de
:10130c001041780001487800070037006005210083
:10131c0020400a001004000010c0a00010b0a10072
:10132c002000200030838800b082800000e8a300f9
:10133c00040032006005210010f0a00010d0a000c5
:10134c00020037006005210010d0a1001000200021
:10135c00000006000200fa000000eb00f0bf9f0046
:10136c0000002700840fb60022003200a1092000e3
:10137c000001eb008007200053f820008049780022
:10138c008149780082497800e2072000217c8000a6
:10139c00010161000200a000710520006004200022
:1013ac0043f8200080497800814978008249780010
:1013bc0072382100eca10a00840f0000a8a00a00da
:1013cc00840f000080cf5000050032007fb89700da
:1013dc008001e800f3bf9f00820f5000f5ff36003c
:1013ec000000eb00713821007fb99700810f51008c
:1013fc0053003e008001eb0050230a008c0f0000cc
:10140c001000200050200a00860f0000810c2000e4
:10141c00b0210a00880f00004200200064220a005c
:10142c008a0f000020200a008a0f000098230a006f
:10143c008a0f0000a1092000120020008007200064
:10144c0053f820008049780081497800824978005f
:10145c00eca10a00840f0000a8a00a00840f000071
:10146c0080cf500021003200e2072000237c800056
:10147c00030161000200a00071052000600420003f
:10148c0043f820008049780081497800824978002f
:10149c0072382100eca10a00840f0000a8a00a00f9
:1014ac00840f000080cf5000050032007fb89700f9
:1014bc008000e800f1bf9f00820f5000f5ff36005e
:1014cc00eca20a00840f0000a8a10a00840f0000ff
:1014dc000000eb00814f510019003a0071382100d7
:1014ec007fb99700810f510015003e0084efa800d2
:1014fc000102200072382100237c800003806000f0
:10150c0005003a007fb897008001e800f3bf9f0008
:10151c00820f5000f8ff36000000eb0084afab00e8
:10152c0007003200713821007fb99700810f5100fc
:10153c0003003e0033a00a00840f0000610010007d
:10154c000080fa00000006000200fa000000eb0028
:10155c00f0bf9f008fefa9003300200098230a00f2
:10156c00920f00001000200050200a008e0f000087
:10157c00d3072000b0230a00900f000020002000a9
:10158c0064200a00920f00001300200020230a00a0
:10159c00920f00008f0fa8008fefa8000000eb0047
:1015ac008e0fe20016003d0001002400723821006d
:1015bc00737c80000380600005003a007fb89700c0
:1015cc008001e800f3bf9f00820f5000f8ff360047
:1015dc000000eb008fcfab0009003200ffb8970082
:1015ec000100e800f0bf9f000000eb007238210002
:1015fc00828f500002003e00eea00a008e0f000009
:10160c000080fa00000006000200fa00889fbe006d
:10161c008a9fbe008c1f78000004eb00a8bf9f00bf
:10162c004cff0700c8ff07006e010700850107008b
:10163c003ffc0700fd00070074fd0700c7fd070015
:10164c0092010700388388006005210010e0a0009b
:10165c000000eb0051052000b1468800a10a2000d3
:10166c00b1468800006888001f6ea900236ea9008f
:10167c0070012000d8200a008a0d00000080200094
:10168c0051052000b1468800a10a2000b14688000f
:10169c000068880001e1a800fb5227008004eb00e1
:1016ac007abb2000000478007c0720000028ab00e7
:1016bc0005003a002fb897008000e800a1bf9f00fa
:1016cc008b0f5000f9ff3600a9bf9f000028a9001e
:1016dc00cca00a005a0e00000000a2004c00dd0055
:1016ec00d172800001c0a10081007000d17288000d
:1016fc0090fe0700e08080008000e800e180880018
:10170c008a0f500009003600ffa00a005a0e000094
:10171c000000a2004f00dd00d172800001f0a1009a
:10172c0081007000d1728800e98088000000000000
:10173c00e1718000010064000e003a002250e200ca
:10174c000c003a0010c0b30022f0b7005b0ea800ea
:10175c005baea900a06480008c0f500003003e001b
:10176c0080002000942cb400020037008000200080
:10177c00a0648800e171800001006400cbff32009e
:10178c002250e200c9ff32002270ef005b0ea9006c
:10179c005baea800c5ff37008c1f780000069000d8
:1017ac000cf0a60038003700440e200024028800fc
:1017bc0040049000600590004608c3004608c10034
:1017cc001201c100500490007005900010019000af
:1017dc009200780030019000928010004009900037
:1017ec008208dd001a039000260598000a03900079
:1017fc0016059800010d78004608c7004608c10080
:10180c004608c1001201c100500b90000600c80030
:10181c000400cd00700b90001301c1000400cd003a
:10182c002013900016a0e600020037000c10a10057
:10183c0002003700060278000c10a0001013900074
:10184c001620e600020037000c00a1000200370051
:10185c00060278000c00a00020049000040c780014
:10186c0041a3de00401490000803430030149000a4
:10187c00060c7800600590000a039000160598008d
:10188c00040d78000c0098004f067800000006004c
:10189c00801f7800600090000018eb000008eb003f
:1018ac004f007800801f7800700090000018eb004b
:1018bc000018eb000008eb004f0078000000060059
:1018cc00801f7800811f780070009000011878004c
:1018dc000118780001087800cf0078004f007800dc
:1018ec00801f7800821f780060009000021878003a
:1018fc00020878004f0178004f00780000000600c5
:10190c000200fa000000eb00f0bf9f00608188002d
:10191c0021012100a1818800e4804000b181880070
:10192c0061ff2600c1818800e4804000d1818800dd
:10193c007180800031828800528180004282880050
:10194c008180800051828800628080002282880021
:10195c00c103210002808000820878001280800080
:10196c00f281880022808000028288003280800010
:10197c0012828800f0bf9f007fb89700910f100073
:10198c000f003600840021002301210001017800a2
:10199c007fb89700ffb8970081804000000040009e
:1019ac00e480780081317800ffb897008100e8006e
:1019bc00f1bf9f007fb89700920f1000f4ff3e001c
:1019cc008000eb00f1bf9f00f08180007fb9970091
:1019dc00820f500010003600040721002301210063
:1019ec00e20321007fb89700ffb897008180400088
:1019fc000080e80000004000e4807800813178002d
:101a0c007fb897000000e800f0bf9f00ffb8970078
:101a1c00928f1000f3ff3e00c00221009cff0700d4
:101a2c00100020000080fa0000000600b10fa90091
:101a3c00b12fa900b14fa90081eca90089eca90034
:101a4c0099eca900a9eca900fdeca9000000eb00a1
:101a5c0010200a00fc0c000032200a00fc0c0000d4
:101a6c0054200a00fc0c000081aca90020002000ce
:101a7c0076200a00800c00000000eb0054200a00c5
:101a8c00800c000020200a00800c0000b004200014
:101a9c0090200a00840c00006a00400090200a008c
:101aac00860c0000100020000000060089eca90044
:101abc000000eb00ed200a00880c0000894ca80007
:101acc00892ca800890ca90088cca9003000200022
:101adc0053200a00880c0000884ca9000000eb0081
:101aec0010200a00880c0000b004200090200a008e
:101afc008a0c00008e2cef008c2cef0093eca800cd
:101b0c00936ca900934ca900932ca9000000eb0046
:101b1c00fc200a00900c000010002000b8200a00e5
:101b2c00900c000074200a00900c000030200a0079
:101b3c00900c000080002000a064880010002000a1
:101b4c000000060089eca80081eca8001000200021
:041b5c00000006007f
:020000040000fa
:101b6000701000000600000082000000ff7fb0003f
:101b700000b180002c1000002a000000800000004e
:101b800000100000120000008200000002000300ac
:101b9000000200000300290046d1ef000300fe0010
:101ba000ffe54b002a10000002000000800000004a
:101bb000121000000a00000080000000f66f000014
:101bc0000a000000800000001c1000000800000057
:101bd00080000000561000001a0000008000000085
:101be000241000000600000080000000000000003b
:020000040000fa
:101bf00001e1a90001a1a9000181a9000161a900d9
:101c00000141a9003000200098200a0000010000d6
:101c100000e1a9000000eb0054200a0000010000d0
:101c20000041a9000021a9000421ef00f07022006a
:101c3000400888000000eb0064200a004008000013
:101c40000028a9002028a90010002000000006009c
:101c5000002eef001c2eef00382eef00542eef0068
:101c60005beea90057eea9005b8ea900578ea90074
:101c70005b0ea900570ea9005baea90057aea900e4
:101c80005aaea90056aea9005acea90056cea90058
:101c90001000200000000600e00621000008eb0014
:0c1ca00079fc0700100020000000060086
:020000040000fa
:020000040005f5
:047e0000ffff000080
:020000040000fa
:020000040005f5
:047e2000ffffff0061
:020000040000fa
:020000040005f5
:047e300078ffff00d8
:020000040000fa
:020000040005f5
:047e38007bffff00cd
:020000040000fa
:020000040005f5
:047e40007f7fff0041
:020000040000fa
:020000040005f5
:047e4800ffffff0039
:020000040000fa
:020000040005f5
:047e5000deffff0052
:020000040000fa
:020000040005f5
:047e58000000ff0027
:020000040000fa
:020000040005f5
:047e60000000ff001f
:020000040000fa
:020000040005f5
:047e68000000ff0017
:020000040000fa
:020000040005f5
:047e70000000ff000f
:020000040000fa
:020000040005f5
:047e7800ffffff0009
:020000040000fa
:020000040005f5
:047e8000fffcff0004
:020000040000fa
:020000040005f5
:047e8800c9ffff002f
:020000040000fa
:020000040005f5
:047ff800ffffff0088
:020000040000fa
:020000040100f9
:04300000ffffff00cf
:00000001FF
