:020000040000fa
:080000000002040000000000f2
:020000040000fa
:04000800b003000041
:020000040000fa
:04000c00b00300003d
:020000040000fa
:04001000b003000039
:020000040000fa
:04001400b003000035
:020000040000fa
:04001800b003000031
:020000040000fa
:04001c00b00300002d
:020000040000fa
:04002000b003000029
:020000040000fa
:04002400b003000025
:020000040000fa
:04002800b003000021
:020000040000fa
:04002c00b00300001d
:020000040000fa
:04003000b003000019
:020000040000fa
:04003400b003000015
:020000040000fa
:04003800b003000011
:020000040000fa
:04003c00b00300000d
:020000040000fa
:04004000b003000009
:020000040000fa
:04004400b003000005
:020000040000fa
:04004800b003000001
:020000040000fa
:04004c00b0030000fd
:020000040000fa
:04005000b0030000f9
:020000040000fa
:04005400b0030000f5
:020000040000fa
:04005800b0030000f1
:020000040000fa
:04005c00b0030000ed
:020000040000fa
:04006000b0030000e9
:020000040000fa
:04006400b0030000e5
:020000040000fa
:04006800b0030000e1
:020000040000fa
:04006c00b0030000dd
:020000040000fa
:04007000b0030000d9
:020000040000fa
:04007400b0030000d5
:020000040000fa
:04007800b0030000d1
:020000040000fa
:04007c00b0030000cd
:020000040000fa
:04008000b0030000c9
:020000040000fa
:04008400b0030000c5
:020000040000fa
:04008800b0030000c1
:020000040000fa
:04008c00b0030000bd
:020000040000fa
:04009000b0030000b9
:020000040000fa
:04009400b0030000b5
:020000040000fa
:04009800b0030000b1
:020000040000fa
:04009c00b0030000ad
:020000040000fa
:0400a000b0030000a9
:020000040000fa
:0400a400b0030000a5
:020000040000fa
:0400a800b0030000a1
:020000040000fa
:0400ac00b00300009d
:020000040000fa
:0400b000b003000099
:020000040000fa
:0400b400b003000095
:020000040000fa
:0400b800b003000091
:020000040000fa
:0400bc00b00300008d
:020000040000fa
:0400c000b003000089
:020000040000fa
:0400c400b003000085
:020000040000fa
:0400c800b003000081
:020000040000fa
:0400cc00b00300007d
:020000040000fa
:0400d000b003000079
:020000040000fa
:0400d400b003000075
:020000040000fa
:0400d800b003000071
:020000040000fa
:0400dc00b00300006d
:020000040000fa
:0400e000b003000069
:020000040000fa
:0400e400b003000065
:020000040000fa
:0400e800b003000061
:020000040000fa
:0400ec00b00300005d
:020000040000fa
:0400f000b003000059
:020000040000fa
:0400f400b003000055
:020000040000fa
:0400f800b003000051
:020000040000fa
:0400fc00b00300004d
:020000040000fa
:04010000b003000048
:020000040000fa
:04010400b003000044
:020000040000fa
:04010800b003000040
:020000040000fa
:04010c00b00300003c
:020000040000fa
:04011000b003000038
:020000040000fa
:04011400b003000034
:020000040000fa
:04011800b003000030
:020000040000fa
:04011c00b00300002c
:020000040000fa
:04012000b003000028
:020000040000fa
:04012400b003000024
:020000040000fa
:04012800b003000020
:020000040000fa
:04012c00b00300001c
:020000040000fa
:04013000b003000018
:020000040000fa
:04013400b003000014
:020000040000fa
:04013800b003000010
:020000040000fa
:04013c00b00300000c
:020000040000fa
:04014000b003000008
:020000040000fa
:04014400b003000004
:020000040000fa
:04014800b003000000
:020000040000fa
:04014c00b0030000fc
:020000040000fa
:04015000b0030000f8
:020000040000fa
:04015400b0030000f4
:020000040000fa
:04015800b0030000f0
:020000040000fa
:04015c00b0030000ec
:020000040000fa
:04016000b0030000e8
:020000040000fa
:04016400b0030000e4
:020000040000fa
:04016800b0030000e0
:020000040000fa
:04016c00b0030000dc
:020000040000fa
:04017000b0030000d8
:020000040000fa
:04017400b0030000d4
:020000040000fa
:04017800b0030000d0
:020000040000fa
:04017c00b0030000cc
:020000040000fa
:04018000b0030000c8
:020000040000fa
:04018400b0030000c4
:020000040000fa
:04018800b0030000c0
:020000040000fa
:04018c00b0030000bc
:020000040000fa
:04019000b0030000b8
:020000040000fa
:04019400b0030000b4
:020000040000fa
:04019800b0030000b0
:020000040000fa
:04019c00b0030000ac
:020000040000fa
:0401a000b0030000a8
:020000040000fa
:0401a400b0030000a4
:020000040000fa
:0401a800b0030000a0
:020000040000fa
:0401ac00fa02000053
:020000040000fa
:0401b000b003000098
:020000040000fa
:0401b400b003000094
:020000040000fa
:0401b800b003000090
:020000040000fa
:0401bc00b00300008c
:020000040000fa
:0401c000b003000088
:020000040000fa
:0401c400b003000084
:020000040000fa
:0401c800b003000080
:020000040000fa
:0401cc00b00300007c
:020000040000fa
:0401d000b003000078
:020000040000fa
:0401d40082030000a2
:020000040000fa
:0401d800b003000070
:020000040000fa
:0401dc00b00300006c
:020000040000fa
:0401e000b003000068
:020000040000fa
:0401e400b003000064
:020000040000fa
:0401e800b003000060
:020000040000fa
:0401ec00b00300005c
:020000040000fa
:0401f000b003000058
:020000040000fa
:0401f400b003000054
:020000040000fa
:0401f800b003000050
:020000040000fa
:0401fc00b00300004c
:020000040000fa
:04020000b003000047
:020000040000fa
:04020400b003000043
:020000040000fa
:04020800b00300003f
:020000040000fa
:04020c00b00300003b
:020000040000fa
:04021000b003000037
:020000040000fa
:04021400b003000033
:020000040000fa
:04021800b00300002f
:020000040000fa
:04021c00b00300002b
:020000040000fa
:04022000b003000027
:020000040000fa
:04022400b003000023
:020000040000fa
:04022800b00300001f
:020000040000fa
:04022c00b00300001b
:020000040000fa
:04023000b003000017
:020000040000fa
:04023400b003000013
:020000040000fa
:04023800b00300000f
:020000040000fa
:04023c00b00300000b
:020000040000fa
:04024000b003000007
:020000040000fa
:04024400b003000003
:020000040000fa
:04024800b0030000ff
:020000040000fa
:04024c00b0030000fb
:020000040000fa
:04025000b0030000f7
:020000040000fa
:04025400b0030000f3
:020000040000fa
:04025800b0030000ef
:020000040000fa
:04025c00b0030000eb
:020000040000fa
:04026000b0030000e7
:020000040000fa
:04026400b0030000e3
:020000040000fa
:04026800b0030000df
:020000040000fa
:04026c00b0030000db
:020000040000fa
:04027000b0030000d7
:020000040000fa
:04027400b0030000d3
:020000040000fa
:04027800b0030000cf
:020000040000fa
:04027c00b0030000cb
:020000040000fa
:04028000b0030000c7
:020000040000fa
:04028400b0030000c3
:020000040000fa
:04028800b0030000bf
:020000040000fa
:04028c00b0030000bb
:020000040000fa
:04029000b0030000b7
:020000040000fa
:04029400b0030000b3
:020000040000fa
:04029800b0030000af
:020000040000fa
:04029c00b0030000ab
:020000040000fa
:0402a000b0030000a7
:020000040000fa
:0402a400b0030000a3
:020000040000fa
:0402a800b00300009f
:020000040000fa
:0402ac00b00300009b
:020000040000fa
:0402b000b003000097
:020000040000fa
:0402b400b003000093
:020000040000fa
:0402b800b00300008f
:020000040000fa
:0402bc00b00300008b
:020000040000fa
:0402c000b003000087
:020000040000fa
:0402c400b003000083
:020000040000fa
:0402c800b00300007f
:020000040000fa
:0402cc00b00300007b
:020000040000fa
:0402d000b003000077
:020000040000fa
:0402d400b003000073
:020000040000fa
:0402d800b00300006f
:020000040000fa
:0402dc00b00300006b
:020000040000fa
:0402e000b003000067
:020000040000fa
:0402e400b003000063
:020000040000fa
:0402e800b00300005f
:020000040000fa
:0402ec00b00300005b
:020000040000fa
:0402f000b003000057
:020000040000fa
:0402f400b003000053
:020000040000fa
:0402f800b00300004f
:020000040000fa
:0402fc00b00300004b
:020000040000fa
:04030000b003000046
:020000040000fa
:04030400b003000042
:020000040000fa
:04030800b00300003e
:020000040000fa
:04030c00b00300003a
:020000040000fa
:04031000b003000036
:020000040000fa
:04031400b003000032
:020000040000fa
:04031800b00300002e
:020000040000fa
:04031c00b00300002a
:020000040000fa
:04032000b003000026
:020000040000fa
:04032400b003000022
:020000040000fa
:04032800b00300001e
:020000040000fa
:04032c00b00300001a
:020000040000fa
:04033000b003000016
:020000040000fa
:04033400b003000012
:020000040000fa
:100400006f0721006efe26000e018800000000002c
:10041000000020000000e000020032000001200087
:100420002002880014000700cf0007000000e00051
:1004300003003a0060ff20000100200002003700a6
:100440000000200001002000810f70000100320038
:100450000f000700000020000000e0000200320052
:1004600000000200000000000c0d0200000000006f
:100470000040da000000fe00200020000000e00044
:1004800002003200100020009001880000000600e9
:10049000a1028800800478000000eb001f003700f4
:1004a000e284440054a0b4009905ba00e2844400f8
:1004b00054a0b4009906ba00e284440054a0b400e9
:1004c0000006eb00476fde00fd07b200ae018800ba
:1004d000636ce10003003a000ad801000000eb0061
:1004e0000e003700606ce10008003a00004deb00a0
:1004f0000a05e800020039003420ec000af0a000f0
:100500008b05e900f9ff3e00040037006168e10057
:10051000010032000086eb000b00070019c7ba008b
:100520001905ba000e04e00003003a000a00e000da
:10053000dbff3a0000000600fe07b200ae028800b2
:100540008a047800f5ff37000cd0a300e20f4d00bd
:100550001c00390089027800354dba000a05e80010
:10056000020039003420ec000af0a0008b05e900fd
:100570000f003200254dba000a05e80002003900dc
:100580003420ec000af0a0008b05e90008003200de
:100590000c00e0000600320015cdba000a05e800a4
:1005a000020039003420ec000af0a0008b05e900bd
:1005b0008984e80054a0b4000b00e000e2ff3a0098
:1005c000000006009902ba00055d78008b05e9007d
:1005d000f7ff3200c82ade00055d78008b05e900d0
:1005e000f3ff32000c00e000f1ff320019ddba0029
:1005f000eeff37003200f8003400f8001000200051
:10060000a001880010002000900188000600fa0078
:100610000000eb00000f78006000b80010079800a1
:10062000210798005acea800c0608000000f780013
:100630001e0078004300dd00000f78001e007800e7
:100640006101b8004c18dd00c410de0081007000ac
:100650004c10dd0010079800210798001e00900044
:10066000ae0090004109dd004f00de000000710087
:10067000cf08de0010079800210798001e009000a8
:10068000ae009000000078006101b8002081800079
:100690003181800002004000838048002081880072
:1006a00031818800408180000000e800408188009e
:1006b00041818000f00f2000008060000000e00019
:1006c0000a003a0020818000318180004809dd0065
:1006d0004800de0000007100c808de00000078005d
:1006e000708388002430ef002630ef000c28a9002a
:1006f0005acea9000080fa003400f9003200f90057
:10070000004006003200f8003400f800100020001d
:10071000a001880010002000900188000000fa006d
:100720005aaea800b082800000b0a000b08288005d
:1007300020618000508388006061800060838800b1
:1007400070838000706488000d68a9005aaea9000b
:100750000080fa003400f9003200f9000040060081
:0c0760000040da000000fe000000050070
:020000040000fa
:10076c000000fa003a020700a7010700a1050700e4
:10077c002e030700530307000000eb0020838800c2
:10078c000000eb00d08288000000eb00f0828800b3
:10079c000000eb0010838800a0ac2000c082880011
:1007ac00a0ac200000838800c20507004005210092
:1007bc009040780060c1600081cab3008140710034
:1007cc00014878005005210090407800e0c060009e
:1007dc000114a00001487800a0382000f10f20007f
:1007ec00010160002105210091417800e0c1610008
:1007fc0002c1710082487800c800de00300521007b
:10080c00104178006041610081407100014878001e
:10081c00c004210090407800e0c0600001487800de
:10082c00d004210090407800e0c0600001487800be
:10083c00e0062100f10f20000101600021032100de
:10084c0091417800e0c1610002c1710082487800da
:10085c00c800de00300321001041780060416100c7
:10086c008140710001487800c0c22000f10f2000c7
:10087c0001016000e102210091417800e0c16100ba
:10088c0002c1710082487800c800de00f00221002d
:10089c00104178006041610081407100014878008e
:1008ac00e0c82000f10f20000101600001032100cd
:1008bc0091417800e0c1610002c17100824878006a
:1008cc00c800de0010032100104178006041610077
:1008dc0081407100014878000005210090407800ab
:1008ec00e0c060007140b3000148780010052100a1
:1008fc0090407800e0c06000f140b30001487800ff
:10090c00e00421009040780060c1600061c2b30037
:10091c008140710001487800f0042100904078007b
:10092c00e0c060003140b30001487800d0022100e3
:10093c00904078000174a100014878000000eb00a1
:10094c0070838800100020000080fa000000060070
:10095c000000fa000603070050050700120207000a
:10096c00c0022100e2040700100020000080fa0001
:10097c00000006000000fa0030838000e30f5000f6
:10098c0045003200e30f500005003e00e10f50001f
:10099c0012003200e10f500018003e000700370033
:1009ac00e50f500076003200e50f50005e00390074
:1009bc00e60f5000860032009900370068ff0700f0
:1009cc00b182800080ff2f0000806000b082880020
:1009dc001000200030838800ac003700dcff0700db
:1009ec00b182800080ff2f0000806000b082880000
:1009fc002000200030838800a4003700b1828000e2
:100a0c0080ff2f00008060000000a000b0828800f2
:100a1c0031a3a800d0022100904078000174a100fd
:100a2c0001487800b082800000a0a100b08288004c
:100a3c00b0828000ff800a00000000000004e0008b
:100a4c0085003200b0828000bb800a0000000000ec
:100a5c000004e00082003200b0828000cc800a00ea
:100a6c00000000000004a2000004e0007e00320040
:100a7c00b0828000dd800a00000000000004e0006d
:100a8c007b0032000000eb00208388003000200047
:100a9c00308388007d003700b182800080ff2f00fa
:100aac00008060000010a000b082880021838000cc
:100abc00d282800010c0b300828f500001003e0033
:100acc000040eb008100e800218388000004e00076
:100adc00690032000000eb00c08288008005210014
:100aec00f10f2000010160002103210091417800e9
:100afc00e0c1610002c1710082487800c800de00cc
:100b0c003003210010417800604161008140710088
:100b1c00014878000000eb00208388004000200092
:100b2c003083880059003700b182800080ff2f008d
:100b3c00008060000010a000b082880031a3a900e2
:100b4c00d0022100904078000174a0000148780088
:100b5c00c082800064004000c0828800c182800096
:100b6c0070838000808f5000450039000000eb003e
:100b7c002083880050002000308388004300370019
:100b8c00b182800080ff2f00008060000010a00068
:100b9c00b0828800218380001283800010c0b300d3
:100bac00828f500001003e000040eb008100e80005
:100bbc00218388000004e000330032000000eb00c9
:100bcc002083880060002000308388002f003700cd
:100bdc00b182800080ff2f00008060003000b300e5
:100bec00b0828800e0062100f10f200001016000b6
:100bfc002103210091417800e0c1610002c1710024
:100c0c0082487800c800de003003210010417800d3
:100c1c006041610081407100014878001b00370081
:100c2c00b182800080ff2f00008060000020a000b7
:100c3c00b0828800b082800000c0a000b082880022
:100c4c00b082800000b0a100b0828800200020009b
:100c5c00308388000d003700000000000b003700c7
:100c6c0000000000090037000000000007003700fa
:100c7c0000000000050037000000000003003700f2
:100c8c00000000000100370000000000b08280006e
:100c9c00ee800a00000000000004e00007003200b3
:100cac00b082800000f0a000b0828800b08280008a
:100cbc0000d0a000b082880003003700b082800012
:100ccc0000d0a100b0828800100020000080fa0043
:100cdc00000006000000fa00a52fa9002be3a900d4
:100cec0061e3a90097e3a900cde3a90003e4a900ff
:100cfc0039e4a9006fe4a900a5e4a9000103a90047
:100d0c008000eb0054210a00000300003100200099
:100d1c0010210a00000300000223ef000423ef005f
:100d2c000623ef000823ef00803e200050188800b7
:100d3c000c23ef000e03a9000e23a9000e43a900fb
:100d4c000e63a9000e83a9000ea3a9000ec3a9006f
:100d5c000ee3a9001003a9001023a9001043a90059
:100d6c001063a9001083a90010a3a90010c3a90047
:100d7c0010e3a9008000eb00fc210a001203000024
:100d8c0012e3a90021002000b8210a001203000080
:100d9c0012c3a9001100200054210a001203000004
:100dac008000eb0020210a00120300001423ef0046
:100dbc001623ef001823ef001a23ef001c23ef007b
:100dcc001fe3a9001fc3a9001fa3a9001f83a9002b
:100ddc008000eb0074210a001e0300008000eb0071
:100dec0020210a001e0300002023ef002223ef0025
:100dfc002423ef002623ef002823ef00100020000f
:100e0c000080fa00000006000000fa0023cea900c2
:100e1c001fcea90029cea8002be3a9008000eb006f
:100e2c00a8210a002a0300002ae3a90011002000cf
:100e3c0043210a002a0300001100200020210a008f
:100e4c002a0300002de3a9002dc3a8002da3a9009f
:100e5c002d63a9008000eb00a8210a002c030000e0
:100e6c002cc3a9008000eb0030210a002c030000e9
:100e7c0031e3a90031c3a90031a3a8003183a80034
:100e8c0011002000ba210a00300300008000eb00a2
:100e9c0098210a00300300008000eb0076210a0044
:100eac00300300008000eb0054210a0030030000e6
:100ebc008000eb0032210a00300300008000eb00c0
:100ecc0010210a00300300008000eb00ec210a0026
:100edc00320300003303a9001100200054210a0042
:100eec00320300003263a9003243a9003223a90067
:100efc003203a9002e23ef008000eb00fb210a0037
:100f0c00340300003543a9003523a8003503a9009c
:100f1c008000eb0043210a00340300008000eb004a
:100f2c0020210a003403000037e3a90037c3a900cd
:100f3c0037a3a9003783a9003100200098210a00ab
:100f4c003603000036e3a80036c3a90036a3a90077
:100f5c008000eb0040210a00360300003fe3a900ab
:100f6c008000eb00ec210a003e0300003100200061
:100f7c00a8210a003e0300003ee3a9008000eb001c
:100f8c0065210a003e0300003e83a8003e63a800d2
:100f9c004100200020210a003e0300003de3a9008f
:100fac0011002000ec210a003c0300003d63a90065
:100fbc0041002000a8210a003c0300003ce3a900ea
:100fcc003cc3a9003ca3a900b101200040210a00a8
:100fdc003c0300003a23ef003823ef004223ef00dc
:100fec004023ef004623ef004423ef0011002000c4
:100ffc00a8210a004a0300004a63a8004a43a9003a
:10100c004a23a9004a03a90080022000401a880044
:10101c004c23ef0000322000701a88005023ef00a0
:10102c00803e2000901a88005423ef00800220009c
:10103c00b01a880000322000c01a88005a23ef0032
:10104c005c23ef00100020000080fa000000060076
:10105c000000fa0061e3a9008000eb00a8210a005f
:10106c006003000060e3a9001100200043210a0086
:10107c00600300001100200020210a006003000022
:10108c0063e3a90063c3a80063a3a9006363a90079
:10109c008000eb00a8210a006203000062c3a900d3
:1010ac001100200030210a00620300006623ef00cb
:1010bc008000eb00ec210a00680300006903a90022
:1010cc001100200054210a00680300006863a90085
:1010dc006843a9006823a9006803a9006423ef00f2
:1010ec008000eb00fb210a006a0300006b03a800e0
:1010fc006b23a9006b43a9008000eb0043210a007d
:10110c006a0300008000eb0020210a006a03000043
:10111c006de3a9006dc3a9006da3a9006d83a9009f
:10112c003100200098210a006c0300006ca3a90078
:10113c006cc3a9006ce3a9008000eb0040210a00fd
:10114c006c0300007423ef007223ef007023ef0098
:10115c006e23ef007823ef007623ef007c23ef0063
:10116c007a23ef008023ef007e23ef008002200023
:10117c00101c8800802f2000201c88008623ef0084
:10118c008823ef00802a2000501c88008c23ef005d
:10119c008e23ef009023ef009223ef00100020002d
:1011ac000080fa00000006000200fa000000eb00cc
:1011bc00000f78002be3a80061e3a8002e63a800c1
:1011cc006463a800000000007019800070006000cb
:1011dc000000e00004003a00201b8000700060005a
:1011ec000000e0000a0032009e00780010c0b3003e
:1011fc0072382100828f5000010036000040eb0055
:10120c008100e800010f78000004e000eeff3a00d6
:10121c003263a8006863a80067a3a9006783a900cc
:10122c00100020000080fa00000006000000fa0008
:10123c00a40fa90001eba90001aba900310020000b
:10124c0065210a00020b000002eba90005eba900c6
:10125c0005cba900058ba800056ba9007100200027
:10126c00a8210a00040b00001100200060210a00d4
:10127c00040b00008100200090210a00060b0000e6
:10128c0007cba90007eba9008000eb00fd210a00a9
:10129c00080b0000098ba900096ba900094ba900d8
:1012ac00092ba900090ba90008eba90008cba90080
:1012bc008000eb0050210a00080b000011002000f8
:1012cc00fe210a000a0b00008000eb00d8210a0066
:1012dc000a0b00000aeba9000a0ba9000a2ba900b3
:1012ec000c0ba9000c2ba9008000eb0010210a00ac
:1012fc000e0b00001100200032210a000e0b000022
:10130c0000eca900000ca900002ca900f1002000a1
:10131c00b8210a00020c000002eca900020ca90082
:10132c00022ca9008000eb0090210a00d80b0000d1
:10133c008000eb0090210a00d40b0000310020004b
:10134c0098210a00d60b00008000eb0060210a00f7
:10135c00d60b000071002000ca210a00d60b000039
:10136c003100200098210a00da0b00008000eb000d
:10137c0060210a00da0b000071002000ca210a006b
:10138c00da0b0000100020000080fa0000000600bc
:10139c000000fa00380ea800d18ba900132ba9006d
:1013ac00130ba900f18ba800218ba8006100200071
:1013bc0040210a008c0b0000c1002000c8210a004b
:1013cc00a00b0000a0eba800a0cba900a08ba9004b
:1013dc00a06ba800a04ba900a02ba900a00ba800f3
:1013ec00398ba80090292000e05988001053200068
:1013fc00f05988006beba90031002000ed210a00a8
:10140c006a0b000031002000ca210a006a0b0000a0
:10141c006b2ba900c100200040210a006a0b0000c0
:10142c00100020000080fa00000006000000fa0006
:10143c0038eea800d20ba900142ba900140ba9009c
:10144c00f20ba800220ba8006100200040210a002a
:10145c00900b000001012000c8210a00a40b000021
:10146c00a4eba900a4cba900a48ba900a46ba90090
:10147c00a44ba900a42ba900a40ba900420ba90002
:10148c00442bef0090e52000305a88006feba90048
:10149c0031002000ed210a006e0b0000110020002d
:1014ac00ca210a006e0b00006f2ba900010120005d
:1014bc0040210a006e0b0000100020000080fa0092
:1014cc00000006000000fa001c2ea800d0cba900da
:1014dc0011aba900118ba900f0cba80020cba80060
:1014ec005100200040210a00860b00006100200002
:1014fc00c8210a00a40b0000a4eba900a4cba900ee
:10150c00a48ba900a46ba900a44ba900a42ba9002f
:10151c00a40ba90040cba900442bef00a0e82000ad
:10152c00305a88006feba90031002000ed210a0031
:10153c006e0b000011002000ca210a006e0b000087
:10154c006f2ba9006100200040210a006e0b0000e7
:10155c002100200064210a00700800000c28a9005a
:10156c002c28a800100020000080fa0000000600c3
:10157c000200fa000000eb00000f78000158800018
:10158c0000002800008060000000e0000200320033
:10159c00100020002d00370001eba80000eca80083
:1015ac000000000001608000000028000080600046
:1015bc000000e0000a003a009e00780010c0b30062
:1015cc0072382100828f5000010036000040eb0081
:1015dc008100e800010f78000004e000f1ff3a0000
:1015ec000160800000002800008060000000e00026
:1015fc00040032009e00780070382100808f50006b
:10160c00020036000000eb00100037000aeba800c7
:10161c00000ca9000a0ba900002ca9000a2ba90098
:10162c008000eb00ec210a00720800000ce8a90015
:10163c002ce8a90051002000ec210a0074080000dd
:10164c000d68a9002d68a800100020000080fa0089
:10165c00000006000200fa000000eb00000f78000a
:10166c00217c800000002700008060000000e0006a
:10167c00290032000001eb0080072000a1092000a6
:10168c0053f820008049780081497800824978001d
:10169c00217c8000e00720000080600000017800c1
:1016ac000200a000600420007105200043f8200017
:1016bc008049780081497800824978000000000058
:1016cc00eca10a00840f0000a8a00a00840f0000ff
:1016dc0080cf50000a0032009e00780010c0b3008a
:1016ec0072382100828f5000010036000040eb0060
:1016fc008100e800010f78000004e000f0ff3a00e0
:10170c009e00780070382100808f50000200360057
:10171c000000eb00700037008000eb0050210a0045
:10172c008c0f00001100200050210a00860f0000d1
:10173c00810c2000b0210a00880f0000410020001d
:10174c0064210a008a0f00001100200020210a00e9
:10175c008a0f00008000eb0098210a008a0f00001d
:10176c001200200080072000a109200053f820005f
:10177c00804978008149780082497800eca10a0000
:10178c00840f0000a8a00a00840f000080cf500036
:10179c0028003200217c8000e007200000806000df
:1017ac00000178000200a0006004200071052000f8
:1017bc0043f82000804978008149780082497800fc
:1017cc0000000000eca10a00840f0000a8a00a0091
:1017dc00840f000080cf50000a0032009e00780079
:1017ec0010c0b30072382100828f50000100360007
:1017fc000040eb008100e800010f78000004e000dd
:10180c00f0ff3a00eca10a00840f0000a8a00a0027
:10181c00840f000080cf500004003a009e00780036
:10182c0070382100808f5000020036000000eb0061
:10183c002900370084efa80000000000217c800004
:10184c0000022000008060000000e0000a003a0066
:10185c009e00780010c0b30072382100828f5000b7
:10186c00010036000040eb008100e800010f780019
:10187c000004e000f1ff3a00217c8000000220000f
:10188c00008060000000e000040032009e00780040
:10189c0070382100808f5000020036000000eb00f1
:1018ac000d0037000080eb00000f780003003700bc
:1018bc001e0078000000e900000f78001e00780080
:1018cc000000e000faff3a0033a00a00840f000089
:1018dc000080fb00610010000080fa000000060090
:1018ec000200fa000000eb00000f78008fefa90057
:1018fc008f0fa8001100200050210a008e0f00004d
:10190c0041062000b0210a00900f000021002000a9
:10191c0064210a00920f00001100200020210a000f
:10192c00920f00003100200098210a00920f000055
:10193c008fefa800717c8000000028000080600000
:10194c000000e00002003a000000eb002d00370020
:10195c000080eb00000f7800030037001e007800b9
:10196c000000e900000f78001e0078000000e00085
:10197c00faff3a0000000000717c80000000240097
:10198c00008060000000e0000a003a009e00780031
:10199c0010c0b30072382100828f50000100360055
:1019ac000040eb008100e800010f78000004e0002b
:1019bc00f1ff3a00717c8000000024000080600080
:1019cc000000e0000a0032009e00780010c0b30056
:1019dc0072382100828f500001003e000040eb0065
:1019ec008100e800010f78000004e00002003200e2
:1019fc000000eb0003003700eea00a008e0f000081
:101a0c000080fb000080fa00000006000200fa00d3
:101a1c000000eb00000f78000eff0700b0ff07007e
:101a2c0093010700ac010700aafc0700cc000700db
:101a3c00fefd070056fe0700bb0107000000eb008f
:101a4c0030838800b082800000e0a000b082880063
:101a5c000000eb0051052000b1468800a10a2000cf
:101a6c00b1468800006888001f6ea900236ea9008b
:101a7c0071012000d8210a008a0d0000008020008e
:101a8c0051052000b1468800a10a2000b14688000b
:101a9c000068880001e1a800000000000040800000
:101aac00620060000000e0000a003a009e0078002e
:101abc0010c0b300f2522700828f50000100360094
:101acc000040eb008100e800010f78000004e0000a
:101adc00f2ff3a000000eb00000f78000028a9008c
:101aec00cca00a005a0e00000004a2006140600065
:101afc000080fb00610060004c00dd00d1728000b2
:101b0c0001c0a10001007000d072880099fb070091
:101b1c00e180800010c0b30072bb2000828f5000a7
:101b2c0001003e000040eb008100e800e1808800ed
:101b3c000004e0000b003200ffa00a005a0e000067
:101b4c000004a200614060000080fb004f00dd003b
:101b5c00d172800001f0a10001007000d0728800e9
:101b6c001c30ef0000000000e171800000802000bc
:101b7c00008060000000e00012003a0022d0bf009c
:101b8c000004a2000004e0000e00320010c0b300fc
:101b9c0022f0b7005b0ea8005baea900a164800028
:101bac0070072000808f500004003e00a06480006d
:101bbc0068004000a064880002003700a0002000ec
:101bcc00a0648800e171800000802000008060002b
:101bdc000000e0000600320022d0bf000004e0004c
:101bec00030032002270ef005b0ea9005baea80070
:101bfc0000000000a9ff37008c1f78000006900041
:101c0c000cf0a60038003700440e20002402880097
:101c1c0040049000600590004608c3004608c100cf
:101c2c001201c1005004900070059000100190004a
:101c3c0092007800300190009280100040099000d2
:101c4c008208dd001a039000260598000a03900014
:101c5c0016059800010d78004608c7004608c1001b
:101c6c004608c1001201c100500b90000600c800cc
:101c7c000400cd00700b90001301c1000400cd00d6
:101c8c002013900016a0e600020037000c10a100f3
:101c9c0002003700060278000c10a0001013900010
:101cac001620e600020037000c00a10002003700ed
:101cbc00060278000c00a00020049000040c7800b0
:101ccc0041a3de0040149000080343003014900040
:101cdc00060c7800600590000a0390001605980029
:101cec00040d78000c0098004f06780000000600e8
:101cfc00801f7800600090000018eb000008eb00db
:101d0c004f007800801f7800700090000018eb00e6
:101d1c000018eb000008eb004f00780000000600f4
:101d2c00801f7800811f78007000900001187800e7
:101d3c000118780001087800cf0078004f00780077
:101d4c00801f7800821f78006000900002187800d5
:101d5c00020878004f0178004f0078000000060060
:101d6c000000fa00b10fa900b12fa900b14fa900d2
:101d7c0081eca90089eca90099eca900a9eca900b7
:101d8c00fdeca9008000eb0010210a00fc0c000007
:101d9c008000eb0032210a00fc0c00008000eb00fc
:101dac0054210a00fc0c000081aca9002100200089
:101dbc0076210a00800c00008000eb0054210a0000
:101dcc00800c00008000eb0020210a00800c000039
:101ddc00c103200090210a00840c00006104200043
:101dec0090210a00860c0000100020000080fa00f0
:101dfc00000006000000fa0089eca9008000eb004e
:101e0c00ed210a00880c0000894ca800892ca80040
:101e1c00890ca90088cca9003100200053210a00ac
:101e2c00880c0000884ca9008000eb0010210a00ef
:101e3c00880c00004101200090210a008a0c00004f
:101e4c008e2cef008c2cef0093eca800936ca90067
:101e5c00934ca900932ca9008000eb00fc210a00f4
:101e6c00900c000011002000b8210a00900c00001a
:101e7c008000eb0074210a00900c0000110020007f
:101e8c0030210a00900c0000a0002000a064880003
:101e9c00100020000080fa00000006000000fa008c
:101eac0089eca80081eca800100020000080fa004a
:101ebc00000006000200fa000000eb00000f7800a2
:101ecc000000eb006081880020012100a0818800c7
:101edc0060012100b081880060ff2600c08188006d
:101eec00a0ff2600d081880070808000308288009e
:101efc005081800040828800808080005082880061
:101f0c00608080002082880000808000e081880052
:101f1c0010808000f0818800208080000082880082
:101f2c0030808000108288000000eb00000f7800e9
:101f3c000d0037001e0078009e00780001814000e3
:101f4c0081002100810041009100780000014000d7
:101f5c002001210000004100010878001e007800db
:101f6c000000e800000f7800e18180001e0078007e
:101f7c00808f5000efff3e000000eb00000f780058
:101f8c000e0037001e0178001e0078008000400013
:101f9c000007210000804000900078000280e800db
:101fac0000014000200121000000410001087800e0
:101fbc001e0078000000e800000f7800f18180001e
:101fcc001e007800808f5000eeff3e00c002210002
:101fdc0047ff0700100020000080fa0000000600f8
:020000040000fa
:101fec0024100000060000008000000070100000ab
:101ffc000600000082000000ff7fb00000b18000ee
:10200c002c1000002a0000008000000012100000bc
:10201c000a00000080000000001000001200000008
:10202c0082000000020003000002000003002900ef
:10203c0046d1ef000300fe00ffe54b00f66f0000f9
:10204c000a000000800000002a10000002000000be
:10205c0080000000561000001a00000080000000f4
:10206c001c100000080000008000000000000000b0
:020000040000fa
:10207c000000fa0001e1a90001a1a9000181a90059
:10208c000161a9000141a9003100200098210a003a
:10209c000001000000e1a9008000eb0054210a00bf
:1020ac00000100000041a9000021a9000421ef005b
:1020bc00f0702200400888008000eb0064210a00c8
:1020cc00400800000028a9002028a90010002000ca
:1020dc000080fa00000006000000fa00002eef005d
:1020ec001c2eef00382eef00542eef005beea900f3
:1020fc0057eea9005b8ea900578ea9005b0ea900b4
:10210c00570ea9005baea90057aea9005aaea900a4
:10211c0056aea9005acea90056cea9001000200038
:10212c000080fa00000006000000fa000000eb003e
:10213c0070838800e3fc0700100020000080fa0088
:04214c000000060089
:020000040000fa
:020000040005f5
:047e0000ffff000080
:020000040000fa
:020000040005f5
:047e2000ffffff0061
:020000040000fa
:020000040005f5
:047e300078ffff00d8
:020000040000fa
:020000040005f5
:047e38007bffff00cd
:020000040000fa
:020000040005f5
:047e40007f7fff0041
:020000040000fa
:020000040005f5
:047e4800ffffff0039
:020000040000fa
:020000040005f5
:047e5000deffff0052
:020000040000fa
:020000040005f5
:047e58000000ff0027
:020000040000fa
:020000040005f5
:047e60000000ff001f
:020000040000fa
:020000040005f5
:047e68000000ff0017
:020000040000fa
:020000040005f5
:047e70000000ff000f
:020000040000fa
:020000040005f5
:047e7800ffffff0009
:020000040000fa
:020000040005f5
:047e8000fffcff0004
:020000040000fa
:020000040005f5
:047e8800c9ffff002f
:020000040000fa
:020000040005f5
:047ff800ffffff0088
:020000040000fa
:020000040100f9
:04300000ffffff00cf
:00000001FF
